:100000000C944A000C9469000C9469000C946900EB
:100010000C9469000C9469000C9469000C946900BC
:100020000C9469000C9469000C9469000C946900AC
:100030000C9495020C9469000C9469000C9469006E
:100040000C9469000C9469000C9469000C9469008C
:100050000C9469000C9469000C9469000C9469007C
:100060000C9469000C9469000C9469000C9469006C
:100070000C9469000C9469000C9469000C9469005C
:100080000C9469000C9469000C9469000C9469004C
:100090000C94690011241FBECFEFD0E1DEBFCDBFAD
:1000A00012E0A0E0B1E0EAE1FBE000E00BBF02C03B
:1000B00007900D92AA31B107D9F722E0AAE1B2E088
:1000C00001C01D92A332B207E1F70E94B5030C9460
:1000D0008B050C940000CF92DF92EF92FF920F936A
:1000E0001F93CF93DF931F92CDB7DEB76C017B01D7
:1000F0008A0161E029830E94EB0061E0C7010E9450
:10010000EB0061E0C8010E94EB002981622FC6016B
:100110000F90DF91CF911F910F91FF90EF90DF90A3
:10012000CF900C9415019B01AC0183E0220F331F8B
:10013000441F551F8A95D1F760E074E284EF90E088
:100140000E945D05BA01A901415051096109710977
:10015000BB27A72F962F852F8093C5004093C400FF
:10016000E0ECF0E0808182608083E1ECF0E080816F
:1001700080618083699A68988081886080838081AB
:100180008B7F8083E2ECF0E080818F7780838081B9
:100190008F7B808380818F7D808380818F7E808331
:1001A0008081877F80838081877F80838081846056
:1001B000808380818260808308959091C00095FF44
:1001C000FCCF8093C60008958091C00087FFFCCFCC
:1001D0008091C6000895FC014681611119C0A28179
:1001E000B3815C9121E030E0C90101C0880F4A95DC
:1001F000EAF7852B8C93A081B1818C91068002C097
:10020000220F331F0A94E2F7209528232C93089598
:100210000190F081E02D208181E090E001C0880F05
:100220004A95EAF7822B80830895CF93DF93DC0110
:100230001796ED91FC9118978785883021F08031D1
:1002400009F478C03CC1613049F108F444C063301E
:1002500009F035C1A081B1813C9181E090E0BC0101
:10026000008402C0660F771F0A94E2F7AC01018494
:1002700002C0440F551F0A94E2F7462B432B9C0102
:10028000048402C0220F331F0A94E2F7242B058452
:1002900002C0880F991F0A94E2F749C0A081B1817A
:1002A0003C9181E090E0BC01008402C0660F771FA2
:1002B0000A94E2F7AC01018402C0440F551F0A946E
:1002C000E2F7462B432B9C01048402C0220F331F0C
:1002D0000A94E2F725C0A081B1813C9181E090E0D1
:1002E000BC01008402C0660F771F0A94E2F7AC01DC
:1002F000018402C0440F551F0A94E2F7462B242FB5
:10030000232BAC01048402C0440F551F0A94E2F76A
:10031000422B9C01058402C0220F331F0A94E2F78E
:10032000242B068402C0880F991F0A94E2F7822BBF
:100330008C93C5C0623009F480C06330D1F1611183
:10034000BEC0C081D181988121E030E0B901008434
:1003500002C0660F771F0A94E2F7A901048402C065
:10036000440F551F0A94E2F7862F842B892B88832C
:100370001796ED91FC911897A281B3819C91B901D8
:10038000058402C0660F771F0A94E2F7A90106846C
:1003900002C0440F551F0A94E2F7862F842B892B45
:1003A000028402C0220F331F0A94E2F7282B2C93F9
:1003B00086C0C081D181988121E030E0B9010084FC
:1003C00002C0660F771F0A94E2F7A901048402C0F5
:1003D000440F551F0A94E2F7862F842B892B8883BC
:1003E0001796ED91FC911897C281D3819881B9013C
:1003F000058402C0660F771F0A94E2F7A901028400
:1004000002C0440F551F0A94E2F7862F842B892BD4
:10041000888317960D90BC91A02D1296ED91FC91BA
:10042000139780811E960C9002C0220F331F0A94EE
:10043000E2F720952823208342C0C081D181988192
:1004400021E030E0B901018402C0660F771F0A94F1
:10045000E2F7A901048402C0440F551F0A94E2F791
:10046000862F842B892B88831796ED91FC91189702
:10047000C281D3819881B901068402C0660F771FBB
:100480000A94E2F7A901028402C0440F551F0A949E
:10049000E2F7862F842B892B038402C0220F331F9F
:1004A0000A94E2F7282B28831796ED91FC91189770
:1004B0000680F781E02D84E690E091838083DF91D0
:1004C000CF910895DC011796ED91FC911897048067
:1004D000F581E02D718360830895DC011296ED9122
:1004E000FC91139716963C91208181E090E001C029
:1004F000880F3A95EAF7613011F4822B02C080959B
:10050000822380830895DC011496ED91FC91159768
:10051000208130E0F90116960C9002C0F595E79520
:100520000A94E2F7CF01817008951F920F920FB6DF
:100530000F9211242F933F934F935F936F937F9369
:100540008F939F93AF9320911A0230911B02409199
:100550001C0250911D0260911E0270911F02809139
:10056000200290912102A1E00E947F0520931A02AF
:1005700030931B0240931C0250931D0260931E0295
:1005800070931F028093200290932102AF919F915C
:100590008F917F916F915F914F913F912F910F902C
:1005A0000FBE0F901F901895E1E8F0E080818A60FF
:1005B000808387E08093890080ED80938800EFE658
:1005C000F0E08081826080830895F89420911A027F
:1005D00030911B0240911C0250911D0260911E023D
:1005E00070911F02809120029091210278940895C9
:1005F00060E00C94EB00DC011496ED91FC911597F2
:10060000208130E0F90116960C9002C0F595E7952F
:100610000A94E2F7CF01817008958536910530F490
:100620008233910528F482E390E002C084E690E0F2
:1006300044E1489F9001499F300D11243093890077
:1006400020938800089561E00E94EB0082E8809387
:100650008000E1E8F0E080E1808380E29EE4909316
:100660008700809386008081826080830895FF9256
:100670000F931F93CF93DF93F82EC0912202082F80
:1006800010E0C81760F5D0E0C017D10708F065C0CA
:10069000BE0180E090E00E94620429EC38EC48E45E
:1006A0005EE30E94F00420E030E048E452E40E945F
:1006B000C70320E030E040E05FE30E94C7030E94F0
:1006C0003304CB010E940D032FEF89EF90E02150FE
:1006D00080409040E1F700C000002196D5CF8C17F4
:1006E00028F5D0E00C171D07C0F5BE0180E090E0B2
:1006F0000E94620429EC38EC48E45EE30E94F004B6
:1007000020E030E048E452E40E94C7030E94330432
:10071000CB010E940D032FEF89EF90E02150804024
:100720009040E1F700C000002197DCCFB801110F25
:10073000880B990B0E94640429EC38EC48E45EE3D2
:100740000E94F00420E030E048E452E40E94C70335
:100750000E943304CB010E940D03F0922202DF912C
:10076000CF911F910F91FF90089588ED91E00E9425
:1007700023032FEF83ED90E3215080409040E1F779
:1007800000C0000084E60E943703F3CF5058BB2717
:10079000AA270E94DE030C94B6040E94A80438F035
:1007A0000E94AF0420F039F49F3F19F426F40C9412
:1007B000A5040EF4E095E7FB0C949F04E92F0E943A
:1007C000C70458F3BA17620773078407950720F028
:1007D00079F4A6F50C94E9040EF4E0950B2EBA2FEB
:1007E000A02D0B01B90190010C01CA01A001112437
:1007F000FF27591B99F0593F50F4503E68F11A16E3
:10080000F040A22F232F342F4427585FF3CF469573
:1008100037952795A795F0405395C9F77EF41F1695
:10082000BA0B620B730B840BBAF09150A1F0FF0F5F
:10083000BB1F661F771F881FC2F70EC0BA0F621F4B
:10084000731F841F48F4879577956795B795F7953B
:100850009E3F08F0B0CF9395880F08F09927EE0FD0
:100860009795879508950E94CF0488F09F5798F038
:10087000B92F9927B751B0F0E1F0660F771F881FA5
:10088000991F1AF0BA95C9F714C0B13091F00E94BF
:10089000E904B1E008950C94E904672F782F8827C4
:1008A000B85F39F0B93FCCF3869577956795B395E6
:1008B000D9F73EF490958095709561957F4F8F4F55
:1008C0009F4F0895E89409C097FB3EF4909580955A
:1008D000709561957F4F8F4F9F4F9923A9F0F92F06
:1008E00096E9BB279395F695879577956795B79584
:1008F000F111F8CFFAF4BB0F11F460FF1BC06F5F6A
:100900007F4F8F4F9F4F16C0882311F096E911C07B
:10091000772321F09EE8872F762F05C0662371F09C
:1009200096E8862F70E060E02AF09A95660F771FB0
:10093000881FDAF7880F9695879597F9089597F9A4
:100940009F6780E870E060E008959FEF80EC089575
:1009500000240A941616170618060906089500249E
:100960000A9412161306140605060895092E039418
:10097000000C11F4882352F0BB0F40F4BF2B11F48C
:1009800060FF04C06F5F7F4F8F4F9F4F089557FDEB
:100990009058440F551F59F05F3F71F04795880FED
:1009A00097FB991F61F09F3F79F087950895121684
:1009B00013061406551FF2CF4695F1DF08C0161630
:1009C00017061806991FF1CF8695710561050894E1
:1009D0000895E894BB2766277727CB0197F90895F8
:1009E0000E9403050C94B6040E94A80438F00E94EB
:1009F000AF0420F0952311F00C949F040C94A504EF
:100A000011240C94EA040E94C70470F3959FC1F36B
:100A1000950F50E0551F629FF001729FBB27F00DAC
:100A2000B11D639FAA27F00DB11DAA1F649F662701
:100A3000B00DA11D661F829F2227B00DA11D621F50
:100A4000739FB00DA11D621F839FA00D611D221F0A
:100A5000749F3327A00D611D231F849F600D211DEE
:100A6000822F762F6A2F11249F5750409AF0F1F071
:100A700088234AF0EE0FFF1FBB1F661F771F881FDA
:100A800091505040A9F79E3F510580F00C949F046F
:100A90000C94EA045F3FE4F3983ED4F3869577958F
:100AA0006795B795F795E7959F5FC1F7FE2B880F80
:100AB000911D9695879597F90895A1E21A2EAA1B84
:100AC000BB1BFD010DC0AA1FBB1FEE1FFF1FA217FE
:100AD000B307E407F50720F0A21BB30BE40BF50BFB
:100AE000661F771F881F991F1A9469F76095709584
:100AF000809590959B01AC01BD01CF010895002424
:100B0000A7FD00942A0F301D401D501D601D701D53
:0A0B1000801D901D0895F894FFCF9A
:100B1A002D002E002C000300002D002E002C0002B8
:100B2A000000300031002F00030000300031002F98
:100B3A0000040000270028002600040000270028DF
:100B4A0000260003000027002800260002000027D4
:100B5A0000280026000100002700280026000000C7
:100B6A0000210022002000030000210022002000B2
:100B7A0004000021002200200005000021002200BC
:100B8A002000060000210022002000070000330098
:100B9A003400320002000027002800260007000067
:100BAA00270028002600060000210022002000005D
:100BBA000000210022002000010000210022002064
:100BCA000002000024002500230000000024002564
:100BDA0000230007FA012400250023000200002454
:100BEA000025002300030000240025002300050A35
:100BFA000224002500230004EA01B0000000B3002B
:100C0A000000060300000500010844000000470038
:100C1A00000006030000050001088000810088002A
:0A0C2A00860000010304070001101A
:00000001FF
