:100000000C9456000C9475000C9475000C947500BB
:100010000C9475000C9475000C9475000C9475008C
:100020000C9475000C9475000C9475000C9475007C
:100030000C9479020C9475000C9475000C94750066
:100040000C9475000C9475000C9407050C947F05B6
:100050000C9475000C9475000C9475000C9475004C
:100060000C9475000C9475000C9475000C9475003C
:100070000C9475000C9475000C9475000C9475002C
:100080000C9475000C9475000C9475000C9475001C
:100090000C9475007E6E7F620C37260C37120C377D
:1000A0000E0C37060C37020C37000C3611241FBE1D
:1000B000CFEFD0E1DEBFCDBF12E0A0E0B1E0ECEFCA
:1000C000F4E100E00BBF02C007900D92A432B1072B
:1000D000D9F723E0A4E2B2E001C01D92AA38B2072A
:1000E000E1F70E948E080C947C0A0C9400009B019E
:1000F000AC0183E0220F331F441F551F8A95D1F7AF
:1001000060E074E284EF90E00E944E0ABA01A90117
:100110004150510961097109BB27A72F962F852FDF
:100120008093C5004093C400E0ECF0E080818260E1
:100130008083E1ECF0E0808180618083699A689837
:1001400080818860808380818B7F8083E2ECF0E017
:1001500080818F77808380818F7B808380818F7D7A
:10016000808380818F7E80838081877F8083808170
:10017000877F8083808184608083808182608083A8
:1001800008959091C00095FFFCCF8093C60008951C
:100190008091C00087FFFCCF8091C6000895FC01CC
:1001A0004681611119C0A281B3815C9121E030E0E8
:1001B000C90101C0880F4A95EAF7852B8C93A0816D
:1001C000B1818C91068002C0220F331F0A94E2F79E
:1001D000209528232C9308950190F081E02D208113
:1001E00081E090E001C0880F4A95EAF7822B808376
:1001F0000895CF93DF93DC011796ED91FC9118974A
:100200008785883021F0803109F478C03CC16130A5
:1002100049F108F444C0633009F035C1A081B181CF
:100220003C9181E090E0BC01008402C0660F771F22
:100230000A94E2F7AC01018402C0440F551F0A94EE
:10024000E2F7462B432B9C01048402C0220F331F8C
:100250000A94E2F7242B058402C0880F991F0A94A0
:10026000E2F749C0A081B1813C9181E090E0BC01FE
:10027000008402C0660F771F0A94E2F7AC01018484
:1002800002C0440F551F0A94E2F7462B432B9C01F2
:10029000048402C0220F331F0A94E2F725C0A08114
:1002A000B1813C9181E090E0BC01008402C0660F06
:1002B000771F0A94E2F7AC01018402C0440F551F76
:1002C0000A94E2F7462B242F232BAC01048402C0AE
:1002D000440F551F0A94E2F7422B9C01058402C08B
:1002E000220F331F0A94E2F7242B068402C0880FE2
:1002F000991F0A94E2F7822B8C93C5C0623009F4EF
:1003000080C06330D1F16111BEC0C081D1819881BC
:1003100021E030E0B901008402C0660F771F0A9423
:10032000E2F7A901048402C0440F551F0A94E2F7C2
:10033000862F842B892B88831796ED91FC91189733
:10034000A281B3819C91B901058402C0660F771F19
:100350000A94E2F7A901068402C0440F551F0A94CB
:10036000E2F7862F842B892B028402C0220F331FD1
:100370000A94E2F7282B2C9386C0C081D181988102
:1003800021E030E0B901008402C0660F771F0A94B3
:10039000E2F7A901048402C0440F551F0A94E2F752
:1003A000862F842B892B88831796ED91FC911897C3
:1003B000C281D3819881B901058402C0660F771F7D
:1003C0000A94E2F7A901028402C0440F551F0A945F
:1003D000E2F7862F842B892B888317960D90BC918A
:1003E000A02D1296ED91FC91139780811E960C9092
:1003F00002C0220F331F0A94E2F72095282320839E
:1004000042C0C081D181988121E030E0B9010184EE
:1004100002C0660F771F0A94E2F7A901048402C0A4
:10042000440F551F0A94E2F7862F842B892B88836B
:100430001796ED91FC911897C281D3819881B901EB
:10044000068402C0660F771F0A94E2F7A9010284AE
:1004500002C0440F551F0A94E2F7862F842B892B84
:10046000038402C0220F331F0A94E2F7282B28834B
:100470001796ED91FC9118970680F781E02D84E6A0
:1004800090E091838083DF91CF910895DC011796EE
:10049000ED91FC9118970480F581E02D71836083C4
:1004A0000895DC011296ED91FC91139716963C91FC
:1004B000208181E090E001C0880F3A95EAF7613031
:1004C00011F4822B02C08095822380830895DC0181
:1004D0001496ED91FC911597208130E0F901169664
:1004E0000C9002C0F595E7950A94E2F7CF01817070
:1004F00008951F920F920FB60F9211242F933F93DE
:100500004F935F936F937F938F939F93AF932091BC
:1005100024023091250240912602509127026091D9
:1005200028027091290280912A0290912B02A1E069
:100530000E94700A209324023093250240932602E1
:1005400050932702609328027093290280932A0215
:1005500090932B02AF919F918F917F916F915F91BB
:100560004F913F912F910F900FBE0F901F901895B4
:10057000E1E8F0E080818A60808387E080938900F1
:1005800080ED80938800EFE6F0E0808182608083D8
:100590000895F8942091240230912502409126027A
:1005A00050912702609128027091290280912A02BD
:1005B00090912B027894089560E00C94CF00DC01B8
:1005C0001496ED91FC911597208130E0F901169673
:1005D0000C9002C0F595E7950A94E2F7CF0181707F
:1005E00008958536910530F48233910528F482E32D
:1005F00090E002C084E690E044E1489F9001499F6A
:10060000300D112430938900209388000895E8E884
:10061000F0E080ED97E09183808324E535E885E480
:1006200091E02150304080409040D9F700C000C098
:10063000000088EE93E0918380832FEF37EA81E614
:10064000215030408040E1F700C000000895CF9372
:10065000DF93EC0161E00E94CF00EF81F885A0817B
:10066000B1819C9121E030E0B901048402C0660FA1
:10067000771F0A94E2F7A901018402C0440F551FB5
:100680000A94E2F7862F842B892B8C93EF81F885CF
:10069000A281B3818C91A901038402C0440F551F2C
:1006A0000A94E2F7068402C0220F331F0A94E2F78D
:1006B000242B282B2C93EF81F8850680F781E02DE1
:1006C00080E29EE49183808388EE93E0909389009A
:1006D000809388002FEF83E294EF21508040904078
:1006E000E1F700C00000DF91CF910895FF920F93D2
:1006F0001F93CF93DF93FC0140815181628173810D
:1007000043355D486105710509F06EC0FC01F68056
:10071000C0912C020F2D10E0CF1548F5D0E0C01786
:10072000D10708F05FC0BE0180E090E00E9453094D
:1007300029EC38EC48E45EE30E94E10920E030E077
:1007400048E452E40E94B80820E030E040E05FE373
:100750000E94B8080E942409CB010E94F1028FE395
:100760009CE90197F1F700C000002196D8CFFC1654
:1007700010F5D0E00C171D07A8F5BE0180E090E051
:100780000E94530929EC38EC48E45EE30E94E10939
:1007900020E030E048E452E40E94B8080E942409B6
:1007A000CB010E94F102EFE3FCE93197F1F700C0C1
:1007B00000002197DFCFB801110F880B990B0E9421
:1007C000550929EC38EC48E45EE30E94E10920E099
:1007D00030E048E452E40E94B8080E942409CB01AA
:1007E0000E94F102F0922C02DF91CF911F910F91A4
:1007F000FF900895CF93DF93CDB7DEB729970FB65B
:10080000F894DEBF0FBECDBF86E00E94C90489E028
:10081000EAE1F2E0DE01119601900D928A95E1F78E
:10082000BE016F5F7F4F80E00E94E50529960FB6FD
:10083000F894DEBF0FBECDBFDF91CF9108951F9317
:10084000CF93DF93CDB7DEB729970FB6F894DEBF0D
:100850000FBECDBF84E00E94C904182FBE016F5F98
:100860007F4F89E0FB0111928A95E9F780E00E94B1
:10087000E505812F29960FB6F894DEBF0FBECDBFD8
:10088000DF91CF911F910895CF93DF93CDB7DEB75E
:100890002E970FB6F894DEBF0FBECDBF9F894B8950
:1008A0005C896D897E8949835A836B837C838D81C2
:1008B0008E7F82608D839E83DE0158969E01295F24
:1008C0003F4FF9018E2F821B891720F48C911296CD
:1008D0008193F8CFCE0101960E944E072E960FB657
:1008E000F894DEBF0FBECDBFDF91CF910895809108
:1008F0002D02882311F08FEF089590E080E090930F
:10090000ED002091EF00207C29F08F5F905F8F3009
:10091000B1F7F1CF0895883080F44091DE0021E0F6
:1009200030E0B90102C0660F771F8A95E2F7CB016C
:10093000809584238093DE0008953091DF0028EFB6
:10094000280F81E090E001C0880F2A95EAF7809592
:1009500083238093DF000895883068F49091DE004F
:1009600021E030E001C0220F8A95EAF7892F822B1F
:100970008093DE0008959091DF00885021E030E000
:1009800001C0220F8A95EAF7892F822B8093DF001E
:100990000895883008F039C09091D8009160909304
:1009A000D80023E0829FC0011124FC01EC56FF4FC8
:1009B000E491E093E200FC01EB56FF4FE491E093F9
:1009C000E3008A569F4FFC0184918093E4001092CB
:1009D000DA0080EB8093DB0087EC8093E5008FEFFB
:1009E0000E94970544EA52E060E184E893E00E94A7
:1009F00027084EE252E068E08EE992E00E94270864
:100A000082E08093D80081E0089580E008951F92ED
:100A10000F920FB60F9211240BB60F922F933F93A4
:100A20004F935F936F937F938F939F93AF93BF93F6
:100A3000CF93DF93EF93FF938091EC00807F803F13
:100A400009F458C0C091ED008091EC00807F809344
:100A5000ED00D091EC008091EE0086FF36C08091D1
:100A6000EE001092EE001092EF008EE992E00E94EC
:100A70006A08009761F00E94C6068EE992E00E9423
:100A80007F088091EF0080648093EF0007C08D2F76
:100A900082958F700E948B0410922D02C093ED00FE
:100AA000FF91EF91DF91CF91BF91AF919F918F9186
:100AB0007F916F915F914F913F912F910F900BBE5E
:100AC0000F900FBE0F901F90189584E893E00E943E
:100AD0004608009731F00E947F0784E893E00E9467
:100AE0005B088091EE001092EE008091EF00807123
:100AF0008068CACF8091DA008093DA00D1CF1F924C
:100B00000F920FB60F9211240F900FBE0F901F90EF
:100B1000189584E893E00E94320891E089270895AF
:100B20008EE992E00E943B0891E089270895CF93D7
:100B30008F30C0F08F3F09F046C01092DF00109256
:100B4000DE0080E08093ED009091EF001092EF00C6
:100B50009091EE001092EE00805F803F99F781E067
:100B6000CF91089590E89093D8009091D90093FD8B
:100B7000FCCF1092D8009091D900C92FC47092FD7B
:100B8000FACF982F9295907F9093ED009091EE0080
:100B90001092EE001092EF000E948B048091ED0005
:100BA000C093ED009091EF009093EF00C05FC03FC5
:100BB000B9F78093ED0082E08093D8008091D9004E
:100BC00082FFFCCFCCCF80E0CBCFCF93FB018F3027
:100BD00008F0DAC090E89093D8009091D90093FD86
:100BE000FCCF1092D8009091D900C92FC47092FD0B
:100BF000FACF982F9295907F9093ED001092EE008F
:100C00001092EF0090859C709C3009F08FC090810D
:100C1000990F990F990F9093F00040815181628153
:100C20007381A5E07695679557954795AA95D1F775
:100C30004093F1004081518162817381BDE07695DE
:100C4000679557954795BA95D1F74093F200408143
:100C500051816281738195E17695679557954795A6
:100C60009A95D1F74093F300248198E0299F900151
:100C7000112421602093F40044815581668177819D
:100C800025E076956795579547952A95D1F7409336
:100C9000F50044815581668177813DE076956795C1
:100CA000579547953A95D1F74093F6004481558181
:100CB00066817781A5E17695679557954795AA95C1
:100CC000D1F74093F7009091EF0090619093EF007F
:100CD000908591FF0DC09091F40094609093F40082
:100CE000908590FF05C09091F00094609093F00083
:100CF0009091EF0090689093EF000E94AC04809177
:100D0000ED00C093ED009091EF009093EF00C05F75
:100D1000C03FB9F78093ED0082E08093D8008091C6
:100D2000D90082FFFCCF81E0CF9108951092F000AE
:100D30001092F10090819295990F907E9093F2001D
:100D40002081318143E0369527954A95E1F720933C
:100D5000F30090859C70A9F091E09093F4001092BC
:100D6000F50094819295990F907E9093F6002481DE
:100D7000358193E0369527959A95E1F72093F70012
:100D8000A7CF1092F400EBCF80E0CECFCF93DF93CC
:100D900000D000D0CDB7DEB7FC0185818093EF0095
:100DA000848181FF32C08091EF0080618093EF00E9
:100DB0008081880F880F880F8093F0008081918157
:100DC000A281B38133E0880F991FAA1FBB1F3A95F8
:100DD000D1F789839A83AB83BC838A818093F100A6
:100DE0008B818093F2008C818093F300848180FF5B
:100DF0001EC08091F00084608093F0000F900F90EF
:100E00000F900F90DF91CF9108951092F000109203
:100E1000F10080818295880F807E8093F20080812E
:100E2000918123E0969587952A95E1F7DDCF9F0183
:100E30002A5F3F4FD90195818A2F821B8917F0F6CF
:100E40008D918093FA00F7CF0F931F93CF938C016E
:100E50000E947704C82F8F30F8F48295807F8093AA
:100E6000ED008091EE001092EE00C8010E94C606CF
:100E70008C2F0E94AC048FB7F89491E090932D02D0
:100E80008FBF8091EF0080648093EF0081E08C0F32
:100E9000CF911F910F91089580E0FACF1F93CF93C8
:100EA000DF93EC0180912D028823E1F08EE992E03E
:100EB0000E944608DC01892BD9F09EE0FE010190DA
:100EC0000D929A95E1F71FB7F89480E090912D026A
:100ED000992329F08EE992E00E945B0881E01FBF10
:100EE00081110BC0CE01DF91CF911F910C9424078B
:100EF00080E0DF91CF911F91089581E0FACFCF93E9
:100F0000DF9300D000D0CDB7DEB7FC019091EF00A9
:100F1000892F8F708583848194FF2CC09091F0007D
:100F200099839091F1009A839091F2009B83909124
:100F3000F3009C8349815A816B817C8193E0769593
:100F40006795579547959A95D1F74083518362836A
:100F50007383826084839091F000848192FF1EC02D
:100F60008160848381E00F900F900F900F90DF914C
:100F7000CF9108959091F200929596959770409137
:100F8000F30028E0429FA0011124492B60E070E0AB
:100F900040835183628373838D7FDCCF8E7F848314
:100FA0009F012A5F3F4FD90195818A2F821B8917A4
:100FB000C8F68091FA008D93F7CF0F931F93CF93CC
:100FC0008C010E948905811105C080E0CF911F919D
:100FD0000F91089580E0C0E08093ED009091EE00C5
:100FE00095FF16C08091EE001092EE00C8010E949D
:100FF0007F07182F8C2F0E94AC048091EF00807126
:1010000080688093EF00112301F381E08C0FDECF25
:10101000CF5F805FCF3001F7D8CFCF93DF93EC0164
:1010200084E893E00E946A08FC01892B71F09EE03D
:10103000DE0101900D929A95E1F784E893E00E9419
:101040007F088FEFDF91CF91089580E0FBCFFC0107
:101050008FB7F89462835183408314821582138280
:101060008FBF08952FB7F894FC0193812FBF81E0C3
:10107000911180E008953FB7F894FC01238192819B
:101080003FBF81E0291708F480E00895CF93DF93F4
:10109000EC010E943B0881110BC02C818881998151
:1010A0003EE0239F800D911D1124DF91CF91089583
:1010B00080E090E0FACFFC019FB7F89483818F5FC6
:1010C000838384818F5F84832281821708F0148256
:1010D0009FBF0895CF93DF93EC010E9432088111E6
:1010E0000BC02D81888199813EE0239F800D911D49
:1010F0001124DF91CF91089580E090E0FACFFC01B8
:101100009FB7F89483818150838385818F5F858326
:101110002281821708F015829FBF0895CF93DF9335
:10112000CDB7DEB72E970FB6F894DEBF0FBECDBF9A
:1011300078940E94FA0360E071EE80E090E00E94F3
:10114000770088ED91E00E9427038BE60E94C100A2
:101150000E9489058823E1F3CE0101960E940D08C3
:101160008823B1F3CE0101960E947603F1CF505847
:10117000BB27AA270E94CF080C94A7090E949909AF
:1011800038F00E94A00920F039F49F3F19F426F4AA
:101190000C9496090EF4E095E7FB0C949009E92F66
:1011A0000E94B80958F3BA176207730784079507B6
:1011B00020F079F4A6F50C94DA090EF4E0950B2EE4
:1011C000BA2FA02D0B01B90190010C01CA01A00199
:1011D0001124FF27591B99F0593F50F4503E68F1F4
:1011E0001A16F040A22F232F342F4427585FF3CF35
:1011F000469537952795A795F0405395C9F77EF406
:101200001F16BA0B620B730B840BBAF09150A1F04E
:10121000FF0FBB1F661F771F881FC2F70EC0BA0FD4
:10122000621F731F841F48F4879577956795B7955C
:10123000F7959E3F08F0B0CF9395880F08F0992757
:10124000EE0F9795879508950E94C00988F09F57E3
:1012500098F0B92F9927B751B0F0E1F0660F771FDA
:10126000881F991F1AF0BA95C9F714C0B13091F0D0
:101270000E94DA09B1E008950C94DA09672F782FFB
:101280008827B85F39F0B93FCCF386957795679595
:10129000B395D9F73EF490958095709561957F4F01
:1012A0008F4F9F4F0895E89409C097FB3EF49095A7
:1012B0008095709561957F4F8F4F9F4F9923A9F02F
:1012C000F92F96E9BB279395F695879577956795BE
:1012D000B795F111F8CFFAF4BB0F11F460FF1BC002
:1012E0006F5F7F4F8F4F9F4F16C0882311F096E995
:1012F00011C0772321F09EE8872F762F05C0662343
:1013000071F096E8862F70E060E02AF09A95660FFB
:10131000771F881FDAF7880F9695879597F90895B4
:1013200097F99F6780E870E060E008959FEF80EC98
:10133000089500240A94161617061806090608953B
:1013400000240A9412161306140605060895092EA1
:101350000394000C11F4882352F0BB0F40F4BF2B10
:1013600011F460FF04C06F5F7F4F8F4F9F4F089550
:1013700057FD9058440F551F59F05F3F71F0479546
:10138000880F97FB991F61F09F3F79F0879508952B
:10139000121613061406551FF2CF4695F1DF08C04A
:1013A000161617061806991FF1CF86957105610567
:1013B00008940895E894BB2766277727CB0197F90F
:1013C00008950E94F4090C94A7090E94990938F025
:1013D0000E94A00920F0952311F00C9490090C9420
:1013E000960911240C94DB090E94B80970F3959FAB
:1013F000C1F3950F50E0551F629FF001729FBB270C
:10140000F00DB11D639FAA27F00DB11DAA1F649FA7
:101410006627B00DA11D661F829F2227B00DA11D5A
:10142000621F739FB00DA11D621F839FA00D611DE0
:10143000221F749F3327A00D611D231F849F600D01
:10144000211D822F762F6A2F11249F5750409AF02A
:10145000F1F088234AF0EE0FFF1FBB1F661F771FB6
:10146000881F91505040A9F79E3F510580F00C9481
:1014700090090C94DB095F3FE4F3983ED4F3869522
:1014800077956795B795F795E7959F5FC1F7FE2B21
:10149000880F911D9695879597F90895A1E21A2EC8
:1014A000AA1BBB1BFD010DC0AA1FBB1FEE1FFF1F08
:1014B000A217B307E407F50720F0A21BB30BE40B58
:1014C000F50B661F771F881F991F1A9469F760959F
:1014D0007095809590959B01AC01BD01CF01089559
:1014E0000024A7FD00942A0F301D401D501D601DD3
:0C14F000701D801D901D0895F894FFCF22
:1014FC002D002E002C000300002D002E002C0002CD
:10150C000000300031002F00030000300031002FAC
:10151C0000040000270028002600040000270028F3
:10152C0000260003000027002800260002000027E8
:10153C0000280026000100002700280026000000DB
:10154C0000210022002000030000210022002000C6
:10155C0004000021002200200005000021002200D0
:10156C0020000600002100220020000700003300AC
:10157C00340032000200002700280026000700007B
:10158C002700280026000600002100220020000071
:10159C000000210022002000010000210022002078
:1015AC000002000024002500230000000024002578
:1015BC0000230007FA012400250023000200002468
:1015CC000025002300030000240025002300050A49
:1015DC000224002500230004EA01B0000000B3003F
:1015EC00000006030000050001084400000047004D
:1015FC00000006030000050001088000810088003F
:10160C0086000001030407000110007F00000000A9
:04161C0000000C00BE
:00000001FF
